{
  "contractName": "Hello",
  "abi": [
    {
      "constant": false,
      "inputs": [],
      "name": "renderHelloWorld",
      "outputs": [
        {
          "name": "",
          "type": "string"
        }
      ],
      "payable": false,
      "stateMutability": "nonpayable",
      "type": "function"
    }
  ],
  "bytecode": "0x6060604052341561000f57600080fd5b61014e8061001e6000396000f3006060604052600436106100405763ffffffff7c0100000000000000000000000000000000000000000000000000000000600035041663942ae0a78114610045575b600080fd5b341561005057600080fd5b6100586100cf565b60405160208082528190810183818151815260200191508051906020019080838360005b8381101561009457808201518382015260200161007c565b50505050905090810190601f1680156100c15780820380516001836020036101000a031916815260200191505b509250505060405180910390f35b6100d7610110565b60408051908101604052600a81527f68656c6c6f576f726c64000000000000000000000000000000000000000000006020820152905090565b602060405190810160405260008152905600a165627a7a723058209c832aa4a94ad051efdd5d862b92492e367f35932421ed215ba54f6e06bb75d60029",
  "source": "pragma solidity ^0.4.18;\ncontract Hello {\n function renderHelloWorld () returns (string) {\n   return 'helloWorld';\n }\n}\n",
  "sourcePath": "/Users/evan/taroko_project/ethereum_web3_demo/contracts/Hello.sol",
  "compiler": {
    "name": "solc",
    "version": "0.4.18+commit.9cf6e910.Emscripten.clang"
  },
  "schemaVersion": "1.0.1",
  "updatedAt": "2018-02-09T08:28:19.174Z"
}